:020000040800F2
:1000000000280020B1130008ED110008F3110008CA
:10001000F9110008FF110008051200080000000097
:100020000000000000000000000000000B120008AB
:100030001712000800000000231200082F12000809
:10004000F9130008F9130008F9130008F913000860
:10005000F9130008F9130008F9130008F913000850
:10006000F9130008F9130008F9130008F913000840
:10007000F9130008F9130008F9130008F913000830
:10008000F9130008F9130008F9130008F913000820
:10009000F9130008F9130008F9130008F913000810
:1000A000F9130008F9130008F9130008F913000800
:1000B0003D120008F913000800000000F9130008C1
:1000C000F91300080000000000000000F913000808
:1000D00000000000F9130008F913000800000000F8
:1000E000F9130008F9130008F913000800000000D4
:1000F0000000000000000000000000000000000000
:0C01000000000000000000005FF808F1A3
:10010C0010B5054C237833B9044B13B10448AFF345
:10011C0000800123237010BD5C0000200000000053
:10012C00102A000808B5034B1BB103490348AFF371
:10013C00008008BD0000000060000020102A0008AC
:10014C0080B483B000AF7860094A7B6852F82330E2
:10015C00012B06D1064A7B68002142F823100123AB
:10016C0000E0002318460C37BD4680BC704700BF2A
:10017C007800002080B483B000AF7860044A7B68BC
:10018C00012142F8231000BF0C37BD4680BC7047DC
:10019C007800002080B582B000AF00237B6069E05E
:1001AC00384A7B6852F8232037497B6841F8232072
:1001BC00364A7B6852F8232032497B6841F8232069
:1001CC00334A7B6832F813301946324801F0FAFB97
:1001DC00034619462D4A7B6842F82310294A7B684E
:1001EC0052F8232029497B6851F823309A423ED19A
:1001FC00244A7B6852F8232023497B6851F823302A
:10020C009A4234D1204A7B6852F8232022497B68D9
:10021C0051F823309A4216D01B4A7B6852F823209F
:10022C001D497B6841F823201B4A7B6852F8233018
:10023C00002B1CD1194A7B68C82142F8231078681E
:10024C00FFF798FF13E0154A7B6852F823305A1ECB
:10025C0012497B6841F82320104A7B6852F82330FE
:10026C00002B04D10C4A7B68012142F823107B68D7
:10027C0001337B607B68022B92DD00BF00BF083727
:10028C00BD4680BD14000020200000200800002086
:10029C0000000020000C01402C0000203800002041
:1002AC0080B582B000AF78607B68092B00F280814A
:1002BC0001A252F823F000BFED020008350300083C
:1002CC007D030008C50300080D0400085504000850
:1002DC009D040008E50400082D05000875050008BC
:1002EC0000220121C64801F084FB00220221C448EF
:1002FC0001F07FFB00220421C14801F07AFB0022AF
:10030C000821BF4801F075FB00221021BC4801F008
:10031C0070FB00222021BA4801F06BFB0122402126
:10032C00B74801F066FB67E101220121B44801F0F6
:10033C0060FB00220221B24801F05BFB0022042189
:10034C00AF4801F056FB01220821AD4801F051FBEA
:10035C0001221021AA4801F04CFB01222021A848BF
:10036C0001F047FB01224021A54801F042FB43E18B
:10037C0000220121A24801F03CFB00220221A048EE
:10038C0001F037FB012204219D4801F032FB0022D1
:10039C0008219B4801F02DFB00221021984801F008
:1003AC0028FB01222021964801F023FB002240214A
:1003BC00934801F01EFB1FE100220121904801F03F
:1003CC0018FB002202218E4801F013FB00220421AD
:1003DC008B4801F00EFB00220821894801F009FB33
:1003EC0001221021864801F004FB012220218448BF
:1003FC0001F0FFFA00224021814801F0FAFAFBE0FB
:10040C00012201217E4801F0F4FA002202217C48ED
:10041C0001F0EFFA00220421794801F0EAFA0122F6
:10042C000821774801F0E5FA01221021744801F007
:10043C00E0FA00222021724801F0DBFA0022402170
:10044C006F4801F0D6FAD7E0002201216C4801F088
:10045C00D0FA012202216A4801F0CBFA00220421D1
:10046C00674801F0C6FA00220821654801F0C1FA7C
:10047C0001221021624801F0BCFA002220216048C0
:10048C0001F0B7FA002240215D4801F0B2FAB3E066
:10049C00002201215A4801F0ACFA012202215848ED
:1004AC0001F0A7FA00220421554801F0A2FA00221B
:1004BC000821534801F09DFA00221021504801F008
:1004CC0098FA002220214E4801F093FA0022402194
:1004DC004B4801F08EFA8FE000220121484801F0D0
:1004EC0088FA00220221464801F083FA00220421F6
:1004FC00434801F07EFA01220821414801F079FAC3
:10050C00012210213E4801F074FA012220213C48BE
:10051C0001F06FFA01224021394801F06AFA6BE0D0
:10052C0000220121364801F064FA002202213448ED
:10053C0001F05FFA00220421314801F05AFA00223E
:10054C0008212F4801F055FA002210212C4801F007
:10055C0050FA002220212A4801F04BFA00224021B7
:10056C00274801F046FA47E000220121244801F017
:10057C0040FA00220221224801F03BFA0022042119
:10058C001F4801F036FA002208211D4801F031FA0B
:10059C00012210211A4801F02CFA002220211848BF
:1005AC0001F027FA00224021154801F022FA23E03D
:1005BC0001220121124801F01CFA012202211048EB
:1005CC0001F017FA012204210D4801F012FA012260
:1005DC0008210B4801F00DFA01221021084801F006
:1005EC0008FA01222021064801F003FA01224021D9
:1005FC00034801F0FEF900BF00BF0837BD4680BDBF
:10060C00000C014080B500AF01224FF400710B4883
:10061C0001F0EFF901224FF48061084801F0E9F98B
:10062C0001224FF40061054801F0E3F901224FF477
:10063C008051024801F0DDF900BF80BD0008014087
:10064C0080B582B000AF7860FFF7DCFF1B4A7B6897
:10065C0052F823301846FFF723FE7B68032B27D86C
:10066C0001A252F823F000BF85060008930600088B
:10067C00A1060008AF06000800224FF400711048D4
:10068C0001F0B7F915E000224FF480610C4801F03D
:10069C00B0F90EE000224FF40061094801F0A9F90D
:1006AC0007E000224FF48051054801F0A2F900E068
:1006BC0000BF00BF0837BD4680BD00BF98000020BA
:1006CC000008014080B500AF914B1B78072B00F060
:1006DC00A580072B00F31281052B02D0062B4ED0E0
:1006EC000CE18C4B1B68012B13D1192000F0A4FCDE
:1006FC00894B1B68002B07D1874B01221A6000F035
:10070C00CDFD00F00DFE04E0834B00221A6000F0DA
:10071C009FFD0020FFF714FD0346012B0CD1012097
:10072C0000F08AFC7A4B06221A707C4B1B687C4AC0
:10073C0013607C4B03221A600120FFF701FD034676
:10074C00012B10D1784B1B680133774A1360744B23
:10075C001B680133724A1360734B1B68632B02DDF9
:10076C00714B02221A600220FFF7EAFC0346012BB0
:10077C0040F0C6806C4B1B686C4A1360C0E0654B44
:10078C001B68012B13D1192000F056FC624B1B681F
:10079C00002B07D1604B01221A6000F095FD00F090
:1007AC00D5FD04E05C4B00221A6000F051FD0020E6
:1007BC00FFF7C6FC0346012B0CD1012000F03CFCDA
:1007CC00534B07221A705A4B1B68554A1360554BF2
:1007DC0004221A600120FFF7B3FC0346012B12D14F
:1007EC00544B1B680133534A13604D4B1B68013348
:1007FC004B4A13604F4B1A684C4B1B689A4202DBF6
:10080C004C4B01221A600220FFF79AFC0346012B85
:10081C0078D1484B1B68414A136073E03D4B1B6811
:10082C00012B13D1192000F007FC3B4B1B68002B4C
:10083C0007D1394B01221A6000F05CFD00F09CFDE1
:10084C0004E0354B00221A6000F002FD0020FFF797
:10085C0077FC0346012B26D12D4B01221A70334B0A
:10086C001A682E4B1B68D31A314A13602F4B1B6826
:10087C002B4A13602E4B1B682A4A136000F010FAA7
:10088C002B4B1B68642202FB03F3184600F084FB1D
:10089C00642000F095FB012000F0BAFB264B0022EF
:1008AC001A60FFF7AFFE0120FFF74AFC0346012B4D
:1008BC0012D1224B1B680133204A1360184B1B6862
:1008CC000133174A13601D4B1A68184B1B689A4268
:1008DC0002DB1A4B01221A600220FFF731FC03469F
:1008EC00012B11D1154B1B68114A13600F4B1A6861
:1008FC000F4B1B68D31A094A136005E000BF04E0D4
:10090C0000BF02E000BF00E000BF00BF80BD00BF21
:10091C0084000020D8000020940000204C0000200F
:10092C00AC000020B0000020880000204400002013
:10093C004800002090000020A80000208C0000201F
:10094C0080B500AF8F4B1B78042B00F2878101A27E
:10095C0052F823F075090008A7090008450A000899
:10096C00F30A0008BD0B000800F072FC854B012255
:10097C001A70854B1B68642202FB03F3184600F0C7
:10098C000BFB642000F01CFB804B1B68804A13603F
:10099C007D4B1B687F4A136069E100F07FFC00F01F
:1009AC00EBFC7D4B1B68012B14D1642000F008FB81
:1009BC00774B1B68013B764A1360764B1B68013BF7
:1009CC00744A1360734B1B68002B03DC734B1B685E
:1009DC00704A1360724B1B68012B0AD16F4B1B685A
:1009EC00642202FB03F3184600F0D6FA654B022290
:1009FC001A700020FFF7A4FB0346012B40F0308156
:100A0C0000F026FC5F4B05221A70604B1B68654A90
:100A1C0013605D4B1B68644A1360604B1B68634A30
:100A2C001360012000F008FB584B1B68584A1360F8
:100A3C00584B02221A6013E100F030FC00F086FCE7
:100A4C00554B1B68012B1CD1642000F0B9FA504B9C
:100A5C001B68013B4E4A13604E4B1B68013B4D4AD1
:100A6C0013604B4B1B68002B03DC474B1B68484A3D
:100A7C001360484B1B68002B03DC444B1B68454A36
:100A8C001360474B1B68012B0AD13F4B1B68642238
:100A9C0002FB03F3184600F07FFA3A4B03221A705C
:100AAC000020FFF74DFB0346012B40F0DB8000F0EC
:100ABC00CFFB344B05221A70344B1B68394A136038
:100ACC00314B1B68384A1360344B1B68374A136030
:100ADC00012000F0B1FA2D4B1B682D4A13602D4BF1
:100AEC0002221A60BEE000F005FC00F019FC2A4B53
:100AFC001B68012B14D1642000F062FA244B1B6894
:100B0C00013B234A1360224B1B68002B03DC234B55
:100B1C001B681F4A13601F4B1B68013B1D4A136067
:100B2C001F4B1B68012B0AD11C4B1B68642202FB58
:100B3C0003F3184600F030FA124B04221A7000200E
:100B4C00FFF7FEFA0346012B40F08E8000F080FB8D
:100B5C000C4B05221A700D4B1B68124A13600A4B82
:100B6C001B68114A13600D4B1B68104A136001205F
:100B7C0000F062FA054B1B68054A1360054B022214
:100B8C001A6071E08400002048000020440000201E
:100B9C00AC000020B0000020C00000204C00002061
:100BAC00B8000020880000208C000020900000205D
:100BBC0000F08AFB00F0B4FB2E4B1B68012B1CD100
:100BCC00642000F0FDF92C4B1B68013B2A4A136092
:100BDC00294B1B68002B03DC284B1B68264A13602F
:100BEC00274B1B68013B264A1360254B1B68002BC7
:100BFC0003DC244B1B68224A1360234B1B68012B1C
:100C0C000AD1204B1B68642202FB03F3184600F048
:100C1C00C3F91E4B01221A700020FFF791FA03460C
:100C2C00012B23D100F014FB184B05221A70134B27
:100C3C001B68174A1360134B1B68164A1360164B3C
:100C4C001B68164A1360012000F0F6F90B4B1B6869
:100C5C00094A13600A4B02221A6007E000BF06E043
:100C6C0000BF04E000BF02E000BF00E000BF00BF17
:100C7C0080BD00BFC0000020AC000020440000205C
:100C8C00B000002048000020B800002084000020A4
:100C9C00880000208C0000204C00002090000020D8
:100CAC0080B400AF1A4B1B681A4A82FB03129210D5
:100CBC00DB17D31A184A1360154B1968154B83FBB5
:100CCC0001239A10CB17D21A13469B0013445B00D6
:100CDC00CA1A114B5A60114B1B680E4A82FB031245
:100CEC009210DB17D31A0C4A93600C4B1968094B02
:100CFC0083FB01239A10CB17D21A13469B00134483
:100D0C005B00CA1A044BDA6000BFBD4680BC70475A
:100D1C00AC0000206766666698000020B0000020DA
:100D2C0080B500AF00F064FB00F03AF800F0C0F8BA
:100D3C0000F072F8164801F0A1FA012000F054F905
:100D4C00012000F065F9134B1B68012B04D10A201C
:100D5C0000F04AF9FFF7A4FF0F4B1B68012B11D1D0
:100D6C00192000F055F90D4B1B685A1C0B490A60F1
:100D7C001846FFF765FC094B1B68032B02DD074B7C
:100D8C0000221A60FFF7DCFDFFF79CFCDBE700BFDD
:100D9C00DC000020C8000020D0000020A8000020AB
:100DAC0080B590B000AF07F1180328220021184637
:100DBC0001F020FE3B1D00221A605A609A60DA6036
:100DCC001A610223BB610123BB621023FB62002367
:100DDC007B6307F11803184600F024FE0346002B32
:100DEC0001D000F0D3F80F237B600023BB600023FD
:100DFC00FB6000233B6100237B613B1D00211846F7
:100E0C0001F090F80346002B01D000F0BFF800BFB2
:100E1C004037BD4680BD000080B586B000AF07F1FD
:100E2C00080300221A605A609A60DA603B4600227E
:100E3C001A605A601D4B4FF080421A601B4B41F6F2
:100E4C003F725A60194B00229A60184B0922DA60E3
:100E5C00164B00221A61154B00229A61134801F0BF
:100E6C00BDF90346002B01D000F090F84FF48053ED
:100E7C00BB6007F1080319460C4801F053FB03460D
:100E8C00002B01D000F082F800233B6000237B6034
:100E9C003B461946054801F01FFD0346002B01D0C7
:100EAC0000F074F800BF1837BD4680BDDC00002090
:100EBC0080B586B000AF07F1080300221A605A60B3
:100ECC009A60DA60284B9B69274A43F004039361CC
:100EDC00254B9B6903F004037B607B68224B9B6969
:100EEC00214A43F0080393611F4B9B6903F00803ED
:100EFC003B603B68002241F6F8711C4800F079FD1C
:100F0C0000227F211A4800F074FD41F6F873BB6093
:100F1C000123FB6000233B6102237B6107F1080383
:100F2C001946124800F0D4FB7F23BB600123FB6001
:100F3C0000233B6102237B6107F1080319460C482F
:100F4C0000F0C6FB4FF46073BB600023FB60012311
:100F5C003B6107F108031946054800F0B9FB00BFD7
:100F6C001837BD4680BD00BF00100240000801408C
:100F7C00000C014080B582B000AF786000F070F8D2
:100F8C00FFF708F900BF0837BD4680BD80B400AF3D
:100F9C0072B600BFFEE7000080B483B000AF78608B
:100FAC00054A7B681360054B00221A6000BF0C37A2
:100FBC00BD4680BC704700BFB4000020B8000020C4
:100FCC0080B483B000AF7860054A7B681360054B32
:100FDC0000221A6000BF0C37BD4680BC704700BFB2
:100FEC00BC000020C000002080B483B000AF78604B
:100FFC00054A7B681360054B00221A6000BF0C3752
:10100C00BD4680BC704700BFC4000020C800002053
:10101C0080B483B000AF7860054A7B681360054BE1
:10102C0000221A6000BF0C37BD4680BC704700BF61
:10103C00CC000020D000002080B483B000AF7860DA
:10104C00054A7B681360054B00221A6000BF0C3701
:10105C00BD4680BC704700BFD4000020D8000020E3
:10106C0080B400AF294B1B68002B0BDD274B1B6892
:10107C00013B264A1360254B1B68002B02DC244BDA
:10108C0001221A60234B1B68002B0BDD214B1B68C4
:10109C00013B204A13601F4B1B68002B02DC1E4BCC
:1010AC0001221A601D4B1B68002B0BDD1B4B1B68B0
:1010BC00013B1A4A1360194B1B68002B02DC184BBE
:1010CC0001221A60174B1B68002B0BDD154B1B689C
:1010DC00013B144A1360134B1B68002B02DC124BB0
:1010EC0001221A60114B1B68002B0BDD0F4B1B6888
:1010FC00013B0E4A13600D4B1B68002B02DC0C4BA2
:10110C0001221A6000BFBD4680BC7047B4000020AD
:10111C00B8000020BC000020C0000020C40000204B
:10112C00C8000020CC000020D0000020D4000020FB
:10113C00D800002080B485B000AF154B9B69144AD1
:10114C0043F001039361124B9B6903F00103BB60F5
:10115C00BB680F4BDB690E4A43F08053D3610C4BD9
:10116C00DB6903F080537B607B680A4B5B68FB6038
:10117C00FB6823F0E063FB60FB6843F08063FB607B
:10118C00044AFB68536000BF1437BD4680BC7047EF
:10119C00001002400000014080B584B000AF7860C0
:1011AC007B681B68B3F1804F13D10C4BDB690B4A86
:1011BC0043F00103D361094BDB6903F00103FB60CE
:1011CC00FB68002200211C2000F04BFA1C2000F0D0
:1011DC0064FA00BF1037BD4680BD00BF001002404E
:1011EC0080B400AFFEE780B400AFFEE780B400AF80
:1011FC00FEE780B400AFFEE780B400AFFEE780B43A
:10120C0000AF00BFBD4680BC704780B400AF00BFCC
:10121C00BD4680BC704780B400AF00BFBD4680BCEB
:10122C00704780B500AF00F029F900BF80BD000009
:10123C0080B500AF024801F06DF800BF80BD00BF63
:10124C00DC00002080B400AF00BFBD4680BC7047FE
:10125C0080B500AF012208210F4800F0CAFB012223
:10126C0010210D4800F0C5FB012220210A4800F096
:10127C00C0FB01224021084800F0BBFB0122802169
:10128C00054800F0B6FB01224FF48071024800F0D3
:10129C00B0FB00BF80BD00BF0008014080B500AFAF
:1012AC0000220821074800F0A4FB01221021054868
:1012BC0000F09FFB01222021024800F09AFB00BFA6
:1012CC0080BD00BF0008014080B500AF012208219D
:1012DC00074800F08EFB00221021054800F089FB26
:1012EC0001222021024800F084FB00BF80BD00BF1A
:1012FC000008014080B500AF01220821074800F02A
:10130C0078FB01221021054800F073FB00222021FC
:10131C00024800F06EFB00BF80BD00BF000801401A
:10132C0080B500AF00224021074800F062FB01228B
:10133C008021054800F05DFB01224FF480710248CA
:10134C0000F057FB00BF80BD0008014080B500AF26
:10135C0001224021074800F04CFB00228021054867
:10136C0000F047FB01224FF48071024800F041FB72
:10137C0000BF80BD0008014080B500AF01224021B4
:10138C00074800F036FB01228021054800F031FBB4
:10139C0000224FF48071024800F02BFB00BF80BD8F
:1013AC0000080140FFF74EFF0B480C490C4A002384
:1013BC0002E0D458C4500433C4188C42F9D3094AFF
:1013CC00094C002301E013600432A242FBD301F06C
:1013DC00EDFAFFF7A5FC7047000000205C00002030
:1013EC00542A00085C00002028010020FEE70000C1
:1013FC0080B500AF084B1B68074A43F0100313601D
:10140C00032000F023F90F2000F008F8FFF792FEFC
:10141C000023184680BD00BF0020024080B582B07A
:10142C0000AF7860124B1A68124B1B7819464FF4B8
:10143C007A73B3FBF1F3B2FBF3F3184600F03BF90C
:10144C000346002B01D001230EE07B680F2B0AD83A
:10145C00002279684FF0FF3000F003F9064A7B68F0
:10146C001360002300E0012318460837BD4680BDF9
:10147C0050000020580000205400002080B400AF21
:10148C00054B1B781A46054B1B681344034A136023
:10149C0000BFBD4680BC70475800002024010020CE
:1014AC0080B400AF024B1B681846BD4680BC704729
:1014BC002401002080B485B000AF78607B6803F015
:1014CC000703FB600C4BDB68BB60BA684FF6FF038D
:1014DC001340BB60FB681A02BB68134343F0BF6345
:1014EC0043F40033BB60044ABB68D36000BF1437BD
:1014FC00BD4680BC704700BF00ED00E080B400AF7B
:10150C00044BDB681B0A03F007031846BD4680BC7E
:10151C00704700BF00ED00E080B483B000AF03461D
:10152C00FB7197F90730002B0BDBFB7903F01F02E3
:10153C00064997F907305B09012000FA02F241F8DD
:10154C00232000BF0C37BD4680BC704700E100E093
:10155C0080B483B000AF03463960FB7197F9073054
:10156C00002B0ADB3B68DAB20C4997F90730120101
:10157C00D2B20B4483F800230AE03B68DAB2084984
:10158C00FB7903F00F03043B1201D2B20B441A7621
:10159C0000BF0C37BD4680BC704700BF00E100E0C7
:1015AC0000ED00E080B489B000AFF860B9607A60FB
:1015BC00FB6803F00703FB61FB69C3F10703042B12
:1015CC0028BF0423BB61FB690433062B02D9FB69DA
:1015DC00033B00E000237B614FF0FF32BB6902FA52
:1015EC0003F3DA43BB681A407B699A404FF0FF3132
:1015FC007B6901FA03F3D9437B680B40134318460C
:10160C002437BD4680BC704780B582B000AF78608F
:10161C007B68013BB3F1807F01D301230FE00A4AC1
:10162C007B68013B53600F214FF0FF30FFF790FFB9
:10163C00054B00229A60044B07221A6000231846BF
:10164C000837BD4680BD00BF10E000E080B582B019
:10165C0000AF78607868FFF72DFF00BF0837BD46F4
:10166C0080BD80B586B000AF0346B9607A60FB736D
:10167C0000237B61FFF742FF78617A68B96878696B
:10168C00FFF790FF024697F90F3011461846FFF707
:10169C005FFF00BF1837BD4680BD80B582B000AF7C
:1016AC000346FB7197F907301846FFF735FF00BF6B
:1016BC000837BD4680BD80B582B000AF78607868D1
:1016CC00FFF7A2FF034618460837BD4680BD000051
:1016DC0080B48BB000AF7860396000237B6200234C
:1016EC003B6248E101227B6A02FA03F3FB613B682F
:1016FC001B68FA691340BB61BA69FB699A4240F0F6
:10170C0037813B685B68A34A93425ED0A14A9342FF
:10171C0075D8A14A934258D09F4A93426FD89F4A9A
:10172C00934252D09D4A934269D89D4A93424CD0E1
:10173C009B4A934263D89B4A934246D0994A934220
:10174C005DD8122B2AD8122B59D801A252F823F0AB
:10175C00D7170008B1170008C317000805180008B0
:10176C000B1800080B1800080B1800080B180008C1
:10177C000B1800080B1800080B1800080B180008B1
:10178C000B1800080B1800080B1800080B180008A1
:10179C000B180008B9170008CD170008824A9342AD
:1017AC0013D02CE03B68DB683B6229E03B68DB68CC
:1017BC0004333B6224E03B68DB6808333B621FE088
:1017CC003B68DB680C333B621AE03B689B68002B80
:1017DC0002D104233B6213E03B689B68012B05D1CB
:1017EC0008233B627B68FA691A6109E008233B62B3
:1017FC007B68FA695A6103E000233B6200E000BF9A
:10180C00BB69FF2B01D87B6801E07B6804337B61EB
:10181C00BB69FF2B02D87B6A9B0002E07B6A083B0A
:10182C009B003B617B691A680F213B6901FA03F34A
:10183C00DB431A40396A3B6901FA03F31A437B69AB
:10184C001A603B685B6803F08053002B00F09080BB
:10185C00564B9B69554A43F001039361534B9B696B
:10186C0003F00103BB60BB68514A7B6A9B080233DF
:10187C0052F82330FB607B6A03F003039B000F22BA
:10188C0002FA03F3DB43FA681340FB607B68494AB6
:10189C0093420DD07B68484A934207D07B68474AF5
:1018AC00934201D1022304E0032302E0012300E070
:1018BC0000237A6A02F0030292009340FA68134301
:1018CC00FB603B497B6A9B080233FA6841F8232092
:1018DC003B685B6803F48013002B06D0384B9A6886
:1018EC003749BB6913438B6006E0354B9A68BB697B
:1018FC00DB43334913408B603B685B6803F4001394
:10190C00002B06D02E4BDA682D49BB691343CB60F4
:10191C0006E02B4BDA68BB69DB4329491340CB60EB
:10192C003B685B6803F40033002B06D0244B5A68E9
:10193C002349BB6913434B6006E0214B5A68BB69D2
:10194C00DB431F4913404B603B685B6803F48033F7
:10195C00002B06D01A4B1A681949BB6913430B604C
:10196C0006E0174B1A68BB69DB43154913400B6043
:10197C007B6A01337B623B681A687B6A22FA03F349
:10198C00002B7FF4AFAE00BF00BF2C37BD4680BC30
:10199C00704700BF00003210000031100000221010
:1019AC000000211000001210000011100010024065
:1019BC000000014000080140000C014000100140F3
:1019CC000004014080B485B000AF78600B467B808A
:1019DC007B689A687B881340002B02D00123FB7331
:1019EC0001E00023FB73FB7B18461437BD4680BC1B
:1019FC00704780B483B000AF78600B467B80134691
:101A0C007B707B78002B03D07A887B681A6103E0AB
:101A1C007B881A047B681A6100BF0C37BD4680BCFA
:101A2C007047000080B586B000AF78607B68002BF3
:101A3C0001D101236CE27B681B6803F00103002BCE
:101A4C0000F08780924B5B6803F00C03042B0CD0E6
:101A5C008F4B5B6803F00C03082B12D18C4B5B682B
:101A6C0003F48033B3F5803F0BD1894B1B6803F42F
:101A7C000033002B6CD07B685B68002B68D1012392
:101A8C0046E27B685B68B3F5803F06D1804B1B68F0
:101A9C007F4A43F4803313602EE07B685B68002B35
:101AAC000CD17B4B1B687A4A23F480331360784B40
:101ABC001B68774A23F4802313601DE07B685B6806
:101ACC00B3F5A02F0CD1724B1B68714A43F48023E1
:101ADC0013606F4B1B686E4A43F4803313600BE04A
:101AEC006B4B1B686A4A23F480331360684B1B688A
:101AFC00674A23F4802313607B685B68002B13D048
:101B0C00FFF7CEFC386108E0FFF7CAFC02463B69E0
:101B1C00D31A642B01D90323FAE15D4B1B6803F440
:101B2C000033002BF0D014E0FFF7BAFC386108E06A
:101B3C00FFF7B6FC02463B69D31A642B01D9032389
:101B4C00E6E1534B1B6803F40033002BF0D100E0AB
:101B5C0000BF7B681B6803F00203002B63D04C4B67
:101B6C005B6803F00C03002B0BD0494B5B6803F054
:101B7C000C03082B1CD1464B5B6803F48033002B01
:101B8C0016D1434B1B6803F00203002B05D07B6876
:101B9C001B69012B01D00123BAE13D4B1B6823F0DB
:101BAC00F8027B685B69DB00394913430B603AE050
:101BBC007B681B69002B20D0364B01221A60FFF783
:101BCC006FFC386108E0FFF76BFC02463B69D31AE7
:101BDC00022B01D903239BE12D4B1B6803F002035D
:101BEC00002BF0D02A4B1B6823F0F8027B685B6952
:101BFC00DB00274913430B6015E0264B00221A60CB
:101C0C00FFF74EFC386108E0FFF74AFC02463B69DF
:101C1C00D31A022B01D903237AE11D4B1B6803F065
:101C2C000203002BF0D17B681B6803F00803002B28
:101C3C003AD07B689B69002B19D0174B01221A6094
:101C4C00FFF72EFC386108E0FFF72AFC02463B69DF
:101C5C00D31A022B01D903235AE10D4B5B6A03F013
:101C6C000203002BF0D0012000F09AFA1CE00A4B82
:101C7C0000221A60FFF714FC38610FE0FFF710FC2C
:101C8C0002463B69D31A022B08D9032340E100BF5B
:101C9C000010024000004242800442429E4B5B6AAC
:101CAC0003F00203002BE9D17B681B6803F00403EB
:101CBC00002B00F0A6800023FB75974BDB6903F02B
:101CCC008053002B0DD1944BDB69934A43F0805326
:101CDC00D361914BDB6903F08053BB60BB6801237C
:101CEC00FB758E4B1B6803F48073002B18D18B4B48
:101CFC001B688A4A43F480731360FFF7D1FB386189
:101D0C0008E0FFF7CDFB02463B69D31A642B01D9DF
:101D1C000323FDE0814B1B6803F48073002BF0D090
:101D2C007B68DB68012B06D17B4B1B6A7A4A43F03C
:101D3C00010313622DE07B68DB68002B0CD1764B22
:101D4C001B6A754A23F001031362734B1B6A724AB8
:101D5C0023F0040313621CE07B68DB68052B0CD1B9
:101D6C006D4B1B6A6C4A43F0040313626A4B1B6A8B
:101D7C00694A43F0010313620BE0674B1B6A664A26
:101D8C0023F001031362644B1B6A634A23F00403C0
:101D9C0013627B68DB68002B15D0FFF781FB386181
:101DAC000AE0FFF77DFB02463B69D31A41F2883209
:101DBC00934201D90323ABE0574B1B6A03F0020398
:101DCC00002BEED014E0FFF76BFB38610AE0FFF755
:101DDC0067FB02463B69D31A41F28832934201D920
:101DEC00032395E04C4B1B6A03F00203002BEED14E
:101DFC00FB7D012B05D1484BDB69474A23F080530F
:101E0C00D3617B68DB69002B00F08180424B5B68FF
:101E1C0003F00C03082B61D07B68DB69022B46D1E5
:101E2C003F4B00221A60FFF73BFB386108E0FFF7DD
:101E3C0037FB02463B69D31A022B01D9032367E017
:101E4C00354B1B6803F00073002BF0D17B681B6AC9
:101E5C00B3F5803F08D1304B5B6823F400327B68CC
:101E6C009B682D4913434B602B4B5B6823F4741216
:101E7C007B68196A7B685B6A0B43274913434B6089
:101E8C00274B01221A60FFF70BFB386108E0FFF7C4
:101E9C0007FB02463B69D31A022B01D9032337E017
:101EAC001D4B1B6803F00073002BF0D02FE01C4B74
:101EBC0000221A60FFF7F4FA386108E0FFF7F0FA35
:101ECC0002463B69D31A022B01D9032320E0124BA3
:101EDC001B6803F00073002BF0D118E07B68DB6902
:101EEC00012B01D1012313E00B4B5B68FB60FB68FA
:101EFC0003F480327B681B6A9A4206D1FB6803F4B8
:101F0C0070127B685B6A9A4201D0012300E00023C7
:101F1C0018461837BD4680BD0010024000700040C6
:101F2C006000424280B584B000AF786039607B6855
:101F3C00002B01D10123D0E06A4B1B6803F007038F
:101F4C003A689A4210D9674B1B6823F0070265491F
:101F5C003B6813430B60634B1B6803F007033A6841
:101F6C009A4201D00123B8E07B681B6803F002039E
:101F7C00002B20D07B681B6803F00403002B05D0DA
:101F8C00594B5B68584A43F4E06353607B681B68A9
:101F9C0003F00803002B05D0534B5B68524A43F403
:101FAC0060535360504B5B6823F0F0027B689B6876
:101FBC004D4913434B607B681B6803F00103002BF6
:101FCC0040D07B685B68012B07D1474B1B6803F43F
:101FDC000033002B15D101237FE07B685B68022B5B
:101FEC0007D1414B1B6803F00073002B09D101236F
:101FFC0073E03D4B1B6803F00203002B01D101235E
:10200C006BE0394B5B6823F003027B685B683649F5
:10201C0013434B60FFF744FAF8600AE0FFF740FA0D
:10202C000246FB68D31A41F28832934201D903234A
:10203C0053E02D4B5B6803F00C027B685B689B00E4
:10204C009A42EBD1274B1B6803F007033A689A427C
:10205C0010D2244B1B6823F0070222493B68134320
:10206C000B60204B1B6803F007033A689A4201D0BF
:10207C00012332E07B681B6803F00403002B08D0BB
:10208C00194B5B6823F4E0627B68DB6816491343E9
:10209C004B607B681B6803F00803002B09D0124BC4
:1020AC005B6823F460527B681B69DB000E491343A9
:1020BC004B6000F021F802460B4B5B681B0903F0E8
:1020CC000F030A49CB5C22FA03F3094A1360094B4C
:1020DC001B681846FFF7A2F9002318461037BD46B7
:1020EC0080BD00BF0020024000100240282A0008DA
:1020FC00500000205400002080B487B000AF0023B3
:10210C00FB600023BB6000237B6100237B6000230A
:10211C003B611E4B5B68FB60FB6803F00C03042BFC
:10212C0002D0082B03D027E0194B3B6127E0FB685A
:10213C009B0C03F00F03174AD35C7B60FB6803F422
:10214C008033002B10D0114B5B685B0C03F0010348
:10215C00114AD35CBB607B680D4A02FB03F2BB687F
:10216C00B2FBF3F37B6104E07B680C4A02FB03F3E4
:10217C007B617B693B6102E0054B3B6100BF3B69C6
:10218C0018461C37BD4680BC704700BF001002408B
:10219C0000127A00382A0008482A000800093D007D
:1021AC0080B485B000AF78600A4B1B680A4AA2FB6A
:1021BC0003235B0A7A6802FB03F3FB6000BFFB6836
:1021CC005A1EFA60002BF9D100BF00BF1437BD4670
:1021DC0080BC704750000020D34D621080B582B097
:1021EC0000AF78607B68002B01D1012341E07B6854
:1021FC0093F83D30DBB2002B06D17B68002283F8CC
:10220C003C207868FEF7C8FF7B68022283F83D20EB
:10221C007B681A687B6804331946104600F06EFA26
:10222C007B68012283F846207B68012283F83E20DC
:10223C007B68012283F83F207B68012283F84020D1
:10224C007B68012283F841207B68012283F84220BD
:10225C007B68012283F843207B68012283F84420A9
:10226C007B68012283F845207B68012283F83D209E
:10227C00002318460837BD4680BD000080B485B0E9
:10228C0000AF78607B6893F83D30DBB2012B01D056
:10229C00012335E07B68022283F83D207B681B68B4
:1022AC00DA687B681B6842F00102DA607B681B68A5
:1022BC00164A934209D07B681B68B3F1804F04D057
:1022CC007B681B68124A934211D17B681B689B6820
:1022DC0003F00703FB60FB68062B10D07B681B68C0
:1022EC001A687B681B6842F001021A6007E07B6881
:1022FC001B681A687B681B6842F001021A60002395
:10230C0018461437BD4680BC704700BF002C0140F6
:10231C000004004080B582B000AF78607B681B6819
:10232C001B6903F00203022B22D17B681B68DB685C
:10233C0003F00203022B1BD17B681B686FF00202B7
:10234C001A617B6801221A777B681B689B6903F012
:10235C000303002B03D0786800F0B4F905E078682B
:10236C0000F0A7F9786800F0B6F97B6800221A77BC
:10237C007B681B681B6903F00403042B22D17B6868
:10238C001B68DB6803F00403042B1BD17B681B6800
:10239C006FF004021A617B6802221A777B681B6853
:1023AC009B6903F44073002B03D0786800F08AF922
:1023BC0005E0786800F07DF9786800F08CF97B68AE
:1023CC0000221A777B681B681B6903F00803082B33
:1023DC0022D17B681B68DB6803F00803082B1BD138
:1023EC007B681B686FF008021A617B6804221A77FD
:1023FC007B681B68DB6903F00303002B03D0786850
:10240C0000F060F905E0786800F053F9786800F0A6
:10241C0062F97B6800221A777B681B681B6903F0E2
:10242C001003102B22D17B681B68DB6803F01003B0
:10243C00102B1BD17B681B686FF010021A617B6834
:10244C0008221A777B681B68DB6903F44073002B46
:10245C0003D0786800F036F905E0786800F029F9C7
:10246C00786800F038F97B6800221A777B681B6863
:10247C001B6903F00103012B0ED17B681B68DB6821
:10248C0003F00103012B07D17B681B686FF001027D
:10249C001A617868FEF76EFD7B681B681B6903F098
:1024AC008003802B0ED17B681B68DB6803F08003F4
:1024BC00802B07D17B681B686FF080021A617868EB
:1024CC0000F06BFA7B681B681B6903F04003402B20
:1024DC000ED17B681B68DB6803F04003402B07D1EF
:1024EC007B681B686FF040021A61786800F0FCF89A
:1024FC007B681B681B6903F02003202B0ED17B68C3
:10250C001B68DB6803F02003202B07D17B681B685A
:10251C006FF020021A61786800F036FA00BF0837B5
:10252C00BD4680BD80B584B000AF786039600023B3
:10253C00FB737B6893F83C30012B01D10223B4E090
:10254C007B68012283F83C207B68022283F83D20C3
:10255C007B681B689B68BB60BB6823F07703BB6020
:10256C00BB6823F47F43BB607B681B68BA689A60C6
:10257C003B681B68B3F5005F3ED0B3F5005F00F21B
:10258C008780B3F5805F00F08680B3F5805F7FD8DD
:10259C00702B1AD0702B7BD8602B50D0602B77D837
:1025AC00502B3CD0502B73D8402B58D0402B6FD88D
:1025BC00302B64D0302B6BD8202B60D0202B67D8DD
:1025CC00002B5CD0102B5AD062E07B6818683B68FB
:1025DC0099683B685A683B68DB6800F05EF97B6879
:1025EC001B689B68BB60BB6843F07703BB607B6870
:1025FC001B68BA689A604FE07B6818683B689968FA
:10260C003B685A683B68DB6800F047F97B681B68DD
:10261C009A687B681B6842F480429A603CE07B6855
:10262C0018683B6859683B68DB681A4600F0BEF8CE
:10263C007B681B685021184600F015F92CE07B686C
:10264C0018683B6859683B68DB681A4600F0DCF890
:10265C007B681B686021184600F005F91CE07B685C
:10266C0018683B6859683B68DB681A4600F09EF8AE
:10267C007B681B684021184600F0F5F80CE07B687D
:10268C001A683B681B681946104600F0ECF803E02A
:10269C000123FB7300E000BF7B68012283F83D201F
:1026AC007B68002283F83C20FB7B18461037BD4624
:1026BC0080BD80B483B000AF786000BF0C37BD46DE
:1026CC0080BC704780B483B000AF786000BF0C371B
:1026DC00BD4680BC704780B483B000AF786000BF4B
:1026EC000C37BD4680BC704780B483B000AF7860B7
:1026FC0000BF0C37BD4680BC7047000080B485B06D
:10270C0000AF786039607B681B68FB607B68254A8A
:10271C00934207D07B68B3F1804F03D07B68224A89
:10272C00934208D1FB6823F07003FB603B685B6845
:10273C00FA681343FB607B681A4A934207D07B68A4
:10274C00B3F1804F03D07B68174A934208D1FB68E2
:10275C0023F44073FB603B68DB68FA681343FB604F
:10276C00FB6823F080023B685B691343FB607B686A
:10277C00FA681A603B689A687B68DA623B681A6888
:10278C007B689A627B68074A934203D13B681A695B
:10279C007B681A637B6801225A6100BF1437BD46FF
:1027AC0080BC7047002C01400004004080B487B00E
:1027BC0000AFF860B9607A60FB681B6A7B61FB68EC
:1027CC001B6A23F00102FB681A62FB689B693B6180
:1027DC003B6923F0F0033B617B681B013A691343AF
:1027EC003B617B6923F00A037B617A69BB68134305
:1027FC007B61FB683A699A61FB687A691A6200BF6F
:10280C001C37BD4680BC704780B487B000AFF86001
:10281C00B9607A60FB681B6A7B61FB681B6A23F0FA
:10282C001002FB681A62FB689B693B613B6923F4ED
:10283C0070433B617B681B033A6913433B617B69C3
:10284C0023F0A0037B61BB681B017A6913437B6196
:10285C00FB683A699A61FB687A691A6200BF1C3797
:10286C00BD4680BC704780B485B000AF78603960DD
:10287C007B689B68FB60FB6823F07003FB603A6825
:10288C00FB68134343F00703FB607B68FA689A60AC
:10289C0000BF1437BD4680BC704780B487B000AF12
:1028AC00F860B9607A603B60FB689B687B617B6910
:1028BC0023F47F437B613B681A027B681A43BB6835
:1028CC0013437A6913437B61FB687A699A6000BF92
:1028DC001C37BD4680BC704780B485B000AF7860B3
:1028EC0039607B6893F83C30012B01D1022341E025
:1028FC007B68012283F83C207B68022283F83D2010
:10290C007B681B685B68FB607B681B689B68BB60B3
:10291C00FB6823F07003FB603B681B68FA68134389
:10292C00FB607B681B68FA685A607B681B68144AFA
:10293C00934209D07B681B68B3F1804F04D07B684D
:10294C001B68104A93420CD1BB6823F08003BB6018
:10295C003B685B68BA681343BB607B681B68BA68EA
:10296C009A607B68012283F83D207B68002283F803
:10297C003C20002318461437BD4680BC704700BF6E
:10298C00002C01400004004080B483B000AF78609C
:10299C0000BF0C37BD4680BC704780B483B000AF1D
:1029AC00786000BF0C37BD4680BC704770B5002600
:1029BC000C4D0D4C641BA410A64209D100F022F85A
:1029CC0000260A4D0A4C641BA410A64205D170BD0A
:1029DC0055F8043B98470136EEE755F8043B984709
:1029EC000136F2E74C2A00084C2A00084C2A000851
:1029FC00502A000803460244934200D1704703F862
:102A0C00011BF9E7F8B500BFF8BC08BC9E4670473F
:0C2A1C00F8B500BFF8BC08BC9E4670472F
:102A28000000000000000000010203040607080976
:102A380002030405060708090A0B0C0D0E0F1010F7
:042A48000102000087
:042A4C00310100084C
:042A50000D0100086C
:102A540080000001000200000100000001000000ED
:102A6400010000000100000001000000010000005E
:102A7400010000000100000001000000010000004E
:102A84000100000001000000C8000000C8000000B0
:102A9400C800000005000000030000000200000060
:0C2AA4000024F4001000000001000000FD
:04000005080013B12B
:00000001FF
